{
  "_format": "hh-sol-artifact-1",
  "contractName": "GemFinderToken",
  "sourceName": "contracts/GemFinderToken.sol",
  "abi": [
    {
      "inputs": [],
      "stateMutability": "nonpayable",
      "type": "constructor"
    },
    {
      "inputs": [
        {
          "internalType": "address",
          "name": "spender",
          "type": "address"
        },
        {
          "internalType": "uint256",
          "name": "allowance",
          "type": "uint256"
        },
        {
          "internalType": "uint256",
          "name": "needed",
          "type": "uint256"
        }
      ],
      "name": "ERC20InsufficientAllowance",
      "type": "error"
    },
    {
      "inputs": [
        {
          "internalType": "address",
          "name": "sender",
          "type": "address"
        },
        {
          "internalType": "uint256",
          "name": "balance",
          "type": "uint256"
        },
        {
          "internalType": "uint256",
          "name": "needed",
          "type": "uint256"
        }
      ],
      "name": "ERC20InsufficientBalance",
      "type": "error"
    },
    {
      "inputs": [
        {
          "internalType": "address",
          "name": "approver",
          "type": "address"
        }
      ],
      "name": "ERC20InvalidApprover",
      "type": "error"
    },
    {
      "inputs": [
        {
          "internalType": "address",
          "name": "receiver",
          "type": "address"
        }
      ],
      "name": "ERC20InvalidReceiver",
      "type": "error"
    },
    {
      "inputs": [
        {
          "internalType": "address",
          "name": "sender",
          "type": "address"
        }
      ],
      "name": "ERC20InvalidSender",
      "type": "error"
    },
    {
      "inputs": [
        {
          "internalType": "address",
          "name": "spender",
          "type": "address"
        }
      ],
      "name": "ERC20InvalidSpender",
      "type": "error"
    },
    {
      "inputs": [],
      "name": "EnforcedPause",
      "type": "error"
    },
    {
      "inputs": [],
      "name": "ExpectedPause",
      "type": "error"
    },
    {
      "inputs": [
        {
          "internalType": "address",
          "name": "owner",
          "type": "address"
        }
      ],
      "name": "OwnableInvalidOwner",
      "type": "error"
    },
    {
      "inputs": [
        {
          "internalType": "address",
          "name": "account",
          "type": "address"
        }
      ],
      "name": "OwnableUnauthorizedAccount",
      "type": "error"
    },
    {
      "anonymous": false,
      "inputs": [
        {
          "indexed": true,
          "internalType": "address",
          "name": "owner",
          "type": "address"
        },
        {
          "indexed": true,
          "internalType": "address",
          "name": "spender",
          "type": "address"
        },
        {
          "indexed": false,
          "internalType": "uint256",
          "name": "value",
          "type": "uint256"
        }
      ],
      "name": "Approval",
      "type": "event"
    },
    {
      "anonymous": false,
      "inputs": [
        {
          "indexed": true,
          "internalType": "address",
          "name": "previousOwner",
          "type": "address"
        },
        {
          "indexed": true,
          "internalType": "address",
          "name": "newOwner",
          "type": "address"
        }
      ],
      "name": "OwnershipTransferred",
      "type": "event"
    },
    {
      "anonymous": false,
      "inputs": [
        {
          "indexed": false,
          "internalType": "address",
          "name": "account",
          "type": "address"
        }
      ],
      "name": "Paused",
      "type": "event"
    },
    {
      "anonymous": false,
      "inputs": [
        {
          "indexed": true,
          "internalType": "address",
          "name": "from",
          "type": "address"
        },
        {
          "indexed": true,
          "internalType": "address",
          "name": "to",
          "type": "address"
        },
        {
          "indexed": false,
          "internalType": "uint256",
          "name": "value",
          "type": "uint256"
        }
      ],
      "name": "Transfer",
      "type": "event"
    },
    {
      "anonymous": false,
      "inputs": [
        {
          "indexed": false,
          "internalType": "address",
          "name": "account",
          "type": "address"
        }
      ],
      "name": "Unpaused",
      "type": "event"
    },
    {
      "inputs": [],
      "name": "INITIAL_SUPPLY",
      "outputs": [
        {
          "internalType": "uint256",
          "name": "",
          "type": "uint256"
        }
      ],
      "stateMutability": "view",
      "type": "function"
    },
    {
      "inputs": [
        {
          "internalType": "address",
          "name": "owner",
          "type": "address"
        },
        {
          "internalType": "address",
          "name": "spender",
          "type": "address"
        }
      ],
      "name": "allowance",
      "outputs": [
        {
          "internalType": "uint256",
          "name": "",
          "type": "uint256"
        }
      ],
      "stateMutability": "view",
      "type": "function"
    },
    {
      "inputs": [
        {
          "internalType": "address",
          "name": "spender",
          "type": "address"
        },
        {
          "internalType": "uint256",
          "name": "value",
          "type": "uint256"
        }
      ],
      "name": "approve",
      "outputs": [
        {
          "internalType": "bool",
          "name": "",
          "type": "bool"
        }
      ],
      "stateMutability": "nonpayable",
      "type": "function"
    },
    {
      "inputs": [
        {
          "internalType": "address",
          "name": "account",
          "type": "address"
        }
      ],
      "name": "balanceOf",
      "outputs": [
        {
          "internalType": "uint256",
          "name": "",
          "type": "uint256"
        }
      ],
      "stateMutability": "view",
      "type": "function"
    },
    {
      "inputs": [
        {
          "internalType": "uint256",
          "name": "value",
          "type": "uint256"
        }
      ],
      "name": "burn",
      "outputs": [],
      "stateMutability": "nonpayable",
      "type": "function"
    },
    {
      "inputs": [
        {
          "internalType": "address",
          "name": "account",
          "type": "address"
        },
        {
          "internalType": "uint256",
          "name": "value",
          "type": "uint256"
        }
      ],
      "name": "burnFrom",
      "outputs": [],
      "stateMutability": "nonpayable",
      "type": "function"
    },
    {
      "inputs": [],
      "name": "decimals",
      "outputs": [
        {
          "internalType": "uint8",
          "name": "",
          "type": "uint8"
        }
      ],
      "stateMutability": "view",
      "type": "function"
    },
    {
      "inputs": [],
      "name": "name",
      "outputs": [
        {
          "internalType": "string",
          "name": "",
          "type": "string"
        }
      ],
      "stateMutability": "view",
      "type": "function"
    },
    {
      "inputs": [],
      "name": "owner",
      "outputs": [
        {
          "internalType": "address",
          "name": "",
          "type": "address"
        }
      ],
      "stateMutability": "view",
      "type": "function"
    },
    {
      "inputs": [],
      "name": "pause",
      "outputs": [],
      "stateMutability": "nonpayable",
      "type": "function"
    },
    {
      "inputs": [],
      "name": "paused",
      "outputs": [
        {
          "internalType": "bool",
          "name": "",
          "type": "bool"
        }
      ],
      "stateMutability": "view",
      "type": "function"
    },
    {
      "inputs": [],
      "name": "renounceOwnership",
      "outputs": [],
      "stateMutability": "nonpayable",
      "type": "function"
    },
    {
      "inputs": [],
      "name": "symbol",
      "outputs": [
        {
          "internalType": "string",
          "name": "",
          "type": "string"
        }
      ],
      "stateMutability": "view",
      "type": "function"
    },
    {
      "inputs": [],
      "name": "totalSupply",
      "outputs": [
        {
          "internalType": "uint256",
          "name": "",
          "type": "uint256"
        }
      ],
      "stateMutability": "view",
      "type": "function"
    },
    {
      "inputs": [
        {
          "internalType": "address",
          "name": "to",
          "type": "address"
        },
        {
          "internalType": "uint256",
          "name": "value",
          "type": "uint256"
        }
      ],
      "name": "transfer",
      "outputs": [
        {
          "internalType": "bool",
          "name": "",
          "type": "bool"
        }
      ],
      "stateMutability": "nonpayable",
      "type": "function"
    },
    {
      "inputs": [
        {
          "internalType": "address",
          "name": "from",
          "type": "address"
        },
        {
          "internalType": "address",
          "name": "to",
          "type": "address"
        },
        {
          "internalType": "uint256",
          "name": "value",
          "type": "uint256"
        }
      ],
      "name": "transferFrom",
      "outputs": [
        {
          "internalType": "bool",
          "name": "",
          "type": "bool"
        }
      ],
      "stateMutability": "nonpayable",
      "type": "function"
    },
    {
      "inputs": [
        {
          "internalType": "address",
          "name": "newOwner",
          "type": "address"
        }
      ],
      "name": "transferOwnership",
      "outputs": [],
      "stateMutability": "nonpayable",
      "type": "function"
    },
    {
      "inputs": [],
      "name": "unpause",
      "outputs": [],
      "stateMutability": "nonpayable",
      "type": "function"
    }
  ],
  "bytecode": "0x60806040523480156200001157600080fd5b50336040518060400160405280600f81526020016e23b2b6a334b73232b9102a37b5b2b760891b8152506040518060400160405280600381526020016211d19560ea1b815250816003908162000068919062000393565b50600462000077828262000393565b5050506001600160a01b038116620000aa57604051631e4fbdf760e01b8152600060048201526024015b60405180910390fd5b620000b581620000d4565b50620000ce336b033b2e3c9fd0803ce80000006200012e565b62000487565b600580546001600160a01b03838116610100818102610100600160a81b031985161790945560405193909204169182907f8be0079c531659141344cd1fd0a4f28419497f9722a3daafe3b4186f6b6457e090600090a35050565b6001600160a01b0382166200015a5760405163ec442f0560e01b815260006004820152602401620000a1565b62000168600083836200016c565b5050565b620001798383836200017e565b505050565b6200018862000195565b62000179838383620001bc565b60055460ff1615620001ba5760405163d93c066560e01b815260040160405180910390fd5b565b6001600160a01b038316620001eb578060026000828254620001df91906200045f565b909155506200025f9050565b6001600160a01b03831660009081526020819052604090205481811015620002405760405163391434e360e21b81526001600160a01b03851660048201526024810182905260448101839052606401620000a1565b6001600160a01b03841660009081526020819052604090209082900390555b6001600160a01b0382166200027d576002805482900390556200029c565b6001600160a01b03821660009081526020819052604090208054820190555b816001600160a01b0316836001600160a01b03167fddf252ad1be2c89b69c2b068fc378daa952ba7f163c4a11628f55a4df523b3ef83604051620002e291815260200190565b60405180910390a3505050565b634e487b7160e01b600052604160045260246000fd5b600181811c908216806200031a57607f821691505b6020821081036200033b57634e487b7160e01b600052602260045260246000fd5b50919050565b601f8211156200017957600081815260208120601f850160051c810160208610156200036a5750805b601f850160051c820191505b818110156200038b5782815560010162000376565b505050505050565b81516001600160401b03811115620003af57620003af620002ef565b620003c781620003c0845462000305565b8462000341565b602080601f831160018114620003ff5760008415620003e65750858301515b600019600386901b1c1916600185901b1785556200038b565b600085815260208120601f198616915b8281101562000430578886015182559484019460019091019084016200040f565b50858210156200044f5787850151600019600388901b60f8161c191681555b5050505050600190811b01905550565b808201808211156200048157634e487b7160e01b600052601160045260246000fd5b92915050565b610a9e80620004976000396000f3fe608060405234801561001057600080fd5b50600436106101165760003560e01c806370a08231116100a25780638da5cb5b116100715780638da5cb5b1461021757806395d89b4114610240578063a9059cbb14610248578063dd62ed3e1461025b578063f2fde38b1461029457600080fd5b806370a08231146101cb578063715018a6146101f457806379cc6790146101fc5780638456cb591461020f57600080fd5b80632ff2e9dc116100e95780632ff2e9dc14610181578063313ce567146101945780633f4ba83a146101a357806342966c68146101ad5780635c975abb146101c057600080fd5b806306fdde031461011b578063095ea7b31461013957806318160ddd1461015c57806323b872dd1461016e575b600080fd5b6101236102a7565b60405161013091906108cf565b60405180910390f35b61014c610147366004610939565b610339565b6040519015158152602001610130565b6002545b604051908152602001610130565b61014c61017c366004610963565b610353565b6101606b033b2e3c9fd0803ce800000081565b60405160128152602001610130565b6101ab610377565b005b6101ab6101bb36600461099f565b610389565b60055460ff1661014c565b6101606101d93660046109b8565b6001600160a01b031660009081526020819052604090205490565b6101ab610396565b6101ab61020a366004610939565b6103a8565b6101ab6103c1565b60055461010090046001600160a01b03166040516001600160a01b039091168152602001610130565b6101236103d1565b61014c610256366004610939565b6103e0565b6101606102693660046109da565b6001600160a01b03918216600090815260016020908152604080832093909416825291909152205490565b6101ab6102a23660046109b8565b6103ee565b6060600380546102b690610a0d565b80601f01602080910402602001604051908101604052809291908181526020018280546102e290610a0d565b801561032f5780601f106103045761010080835404028352916020019161032f565b820191906000526020600020905b81548152906001019060200180831161031257829003601f168201915b5050505050905090565b60003361034781858561042e565b60019150505b92915050565b600033610361858285610440565b61036c8585856104bf565b506001949350505050565b61037f61051e565b610387610551565b565b61039333826105a3565b50565b61039e61051e565b61038760006105d9565b6103b3823383610440565b6103bd82826105a3565b5050565b6103c961051e565b610387610633565b6060600480546102b690610a0d565b6000336103478185856104bf565b6103f661051e565b6001600160a01b03811661042557604051631e4fbdf760e01b8152600060048201526024015b60405180910390fd5b610393816105d9565b61043b8383836001610670565b505050565b6001600160a01b038381166000908152600160209081526040808320938616835292905220546000198110156104b957818110156104aa57604051637dc7a0d960e11b81526001600160a01b0384166004820152602481018290526044810183905260640161041c565b6104b984848484036000610670565b50505050565b6001600160a01b0383166104e957604051634b637e8f60e11b81526000600482015260240161041c565b6001600160a01b0382166105135760405163ec442f0560e01b81526000600482015260240161041c565b61043b838383610745565b6005546001600160a01b036101009091041633146103875760405163118cdaa760e01b815233600482015260240161041c565b610559610750565b6005805460ff191690557f5db9ee0a495bf2e6ff9c91a7834c1ba4fdd244a5e8aa4e537bd38aeae4b073aa335b6040516001600160a01b03909116815260200160405180910390a1565b6001600160a01b0382166105cd57604051634b637e8f60e11b81526000600482015260240161041c565b6103bd82600083610745565b600580546001600160a01b03838116610100818102610100600160a81b031985161790945560405193909204169182907f8be0079c531659141344cd1fd0a4f28419497f9722a3daafe3b4186f6b6457e090600090a35050565b61063b610773565b6005805460ff191660011790557f62e78cea01bee320cd4e420270b5ea74000d11b0c9f74754ebdbfc544b05a2586105863390565b6001600160a01b03841661069a5760405163e602df0560e01b81526000600482015260240161041c565b6001600160a01b0383166106c457604051634a1406b160e11b81526000600482015260240161041c565b6001600160a01b03808516600090815260016020908152604080832093871683529290522082905580156104b957826001600160a01b0316846001600160a01b03167f8c5be1e5ebec7d5bd14f71427d1e84f3dd0314c0f7b2291e5b200ac8c7c3b9258460405161073791815260200190565b60405180910390a350505050565b61043b838383610797565b60055460ff1661038757604051638dfc202b60e01b815260040160405180910390fd5b60055460ff16156103875760405163d93c066560e01b815260040160405180910390fd5b61079f610773565b61043b8383836001600160a01b0383166107d05780600260008282546107c59190610a47565b909155506108429050565b6001600160a01b038316600090815260208190526040902054818110156108235760405163391434e360e21b81526001600160a01b0385166004820152602481018290526044810183905260640161041c565b6001600160a01b03841660009081526020819052604090209082900390555b6001600160a01b03821661085e5760028054829003905561087d565b6001600160a01b03821660009081526020819052604090208054820190555b816001600160a01b0316836001600160a01b03167fddf252ad1be2c89b69c2b068fc378daa952ba7f163c4a11628f55a4df523b3ef836040516108c291815260200190565b60405180910390a3505050565b600060208083528351808285015260005b818110156108fc578581018301518582016040015282016108e0565b506000604082860101526040601f19601f8301168501019250505092915050565b80356001600160a01b038116811461093457600080fd5b919050565b6000806040838503121561094c57600080fd5b6109558361091d565b946020939093013593505050565b60008060006060848603121561097857600080fd5b6109818461091d565b925061098f6020850161091d565b9150604084013590509250925092565b6000602082840312156109b157600080fd5b5035919050565b6000602082840312156109ca57600080fd5b6109d38261091d565b9392505050565b600080604083850312156109ed57600080fd5b6109f68361091d565b9150610a046020840161091d565b90509250929050565b600181811c90821680610a2157607f821691505b602082108103610a4157634e487b7160e01b600052602260045260246000fd5b50919050565b8082018082111561034d57634e487b7160e01b600052601160045260246000fdfea2646970667358221220f90b2c604bb0c095d583eb222b7097ee3232b2bcd30242e554771c38453f050e64736f6c63430008140033",
  "linkReferences": {},
  "deployedLinkReferences": {}
}