{
  "_format": "hh-sol-artifact-1",
  "contractName": "TokenSale",
  "sourceName": "contracts/TokenSale.sol",
  "abi": [
    {
      "inputs": [
        {
          "internalType": "contract IERC20",
          "name": "_token",
          "type": "address"
        },
        {
          "internalType": "uint256",
          "name": "_rate",
          "type": "uint256"
        }
      ],
      "stateMutability": "nonpayable",
      "type": "constructor"
    },
    {
      "inputs": [
        {
          "internalType": "address",
          "name": "owner",
          "type": "address"
        }
      ],
      "name": "OwnableInvalidOwner",
      "type": "error"
    },
    {
      "inputs": [
        {
          "internalType": "address",
          "name": "account",
          "type": "address"
        }
      ],
      "name": "OwnableUnauthorizedAccount",
      "type": "error"
    },
    {
      "inputs": [],
      "name": "ReentrancyGuardReentrantCall",
      "type": "error"
    },
    {
      "anonymous": false,
      "inputs": [
        {
          "indexed": true,
          "internalType": "address",
          "name": "to",
          "type": "address"
        },
        {
          "indexed": false,
          "internalType": "uint256",
          "name": "amount",
          "type": "uint256"
        }
      ],
      "name": "EthWithdrawn",
      "type": "event"
    },
    {
      "anonymous": false,
      "inputs": [
        {
          "indexed": true,
          "internalType": "address",
          "name": "previousOwner",
          "type": "address"
        },
        {
          "indexed": true,
          "internalType": "address",
          "name": "newOwner",
          "type": "address"
        }
      ],
      "name": "OwnershipTransferred",
      "type": "event"
    },
    {
      "anonymous": false,
      "inputs": [
        {
          "indexed": false,
          "internalType": "uint256",
          "name": "newRate",
          "type": "uint256"
        }
      ],
      "name": "RateUpdated",
      "type": "event"
    },
    {
      "anonymous": false,
      "inputs": [
        {
          "indexed": true,
          "internalType": "address",
          "name": "purchaser",
          "type": "address"
        },
        {
          "indexed": false,
          "internalType": "uint256",
          "name": "ethAmount",
          "type": "uint256"
        },
        {
          "indexed": false,
          "internalType": "uint256",
          "name": "tokenAmount",
          "type": "uint256"
        }
      ],
      "name": "TokensPurchased",
      "type": "event"
    },
    {
      "inputs": [],
      "name": "buyTokens",
      "outputs": [],
      "stateMutability": "payable",
      "type": "function"
    },
    {
      "inputs": [],
      "name": "owner",
      "outputs": [
        {
          "internalType": "address",
          "name": "",
          "type": "address"
        }
      ],
      "stateMutability": "view",
      "type": "function"
    },
    {
      "inputs": [],
      "name": "rate",
      "outputs": [
        {
          "internalType": "uint256",
          "name": "",
          "type": "uint256"
        }
      ],
      "stateMutability": "view",
      "type": "function"
    },
    {
      "inputs": [],
      "name": "renounceOwnership",
      "outputs": [],
      "stateMutability": "nonpayable",
      "type": "function"
    },
    {
      "inputs": [
        {
          "internalType": "uint256",
          "name": "_newRate",
          "type": "uint256"
        }
      ],
      "name": "setRate",
      "outputs": [],
      "stateMutability": "nonpayable",
      "type": "function"
    },
    {
      "inputs": [],
      "name": "token",
      "outputs": [
        {
          "internalType": "contract IERC20",
          "name": "",
          "type": "address"
        }
      ],
      "stateMutability": "view",
      "type": "function"
    },
    {
      "inputs": [
        {
          "internalType": "address",
          "name": "newOwner",
          "type": "address"
        }
      ],
      "name": "transferOwnership",
      "outputs": [],
      "stateMutability": "nonpayable",
      "type": "function"
    },
    {
      "inputs": [],
      "name": "withdrawEth",
      "outputs": [],
      "stateMutability": "nonpayable",
      "type": "function"
    },
    {
      "inputs": [
        {
          "internalType": "uint256",
          "name": "amount",
          "type": "uint256"
        }
      ],
      "name": "withdrawTokens",
      "outputs": [],
      "stateMutability": "nonpayable",
      "type": "function"
    },
    {
      "stateMutability": "payable",
      "type": "receive"
    }
  ],
  "bytecode": "0x608060405234801561001057600080fd5b50604051610a09380380610a0983398101604081905261002f91610176565b338061005657604051631e4fbdf760e01b8152600060048201526024015b60405180910390fd5b61005f81610126565b50600180556001600160a01b0382166100ba5760405162461bcd60e51b815260206004820152601960248201527f546f6b656e20616464726573732063616e6e6f74206265203000000000000000604482015260640161004d565b600081116100fd5760405162461bcd60e51b815260206004820152601060248201526f052617465206d757374206265203e20360841b604482015260640161004d565b600280546001600160a01b0319166001600160a01b0393909316929092179091556003556101b0565b600080546001600160a01b038381166001600160a01b0319831681178455604051919092169283917f8be0079c531659141344cd1fd0a4f28419497f9722a3daafe3b4186f6b6457e09190a35050565b6000806040838503121561018957600080fd5b82516001600160a01b03811681146101a057600080fd5b6020939093015192949293505050565b61084a806101bf6000396000f3fe60806040526004361061008a5760003560e01c80638da5cb5b116100595780638da5cb5b1461011c578063a0ef91df1461014e578063d0febe4c14610163578063f2fde38b1461016b578063fc0c546a1461018b57600080fd5b80632c4e722e1461009e578063315a095d146100c757806334fcf437146100e7578063715018a61461010757600080fd5b36610099576100976101ab565b005b600080fd5b3480156100aa57600080fd5b506100b460035481565b6040519081526020015b60405180910390f35b3480156100d357600080fd5b506100976100e2366004610765565b6103d2565b3480156100f357600080fd5b50610097610102366004610765565b6104b5565b34801561011357600080fd5b5061009761053b565b34801561012857600080fd5b506000546001600160a01b03165b6040516001600160a01b0390911681526020016100be565b34801561015a57600080fd5b5061009761054d565b6100976101ab565b34801561017757600080fd5b5061009761018636600461077e565b610683565b34801561019757600080fd5b50600254610136906001600160a01b031681565b6101b36106be565b34806101f65760405162461bcd60e51b815260206004820152600d60248201526c09aeae6e840e6cadcc8408aa89609b1b60448201526064015b60405180910390fd5b60006003548261020691906107ae565b6002546040516370a0823160e01b815230600482015291925082916001600160a01b03909116906370a0823190602401602060405180830381865afa158015610253573d6000803e3d6000fd5b505050506040513d601f19601f8201168201806040525081019061027791906107d9565b10156102d15760405162461bcd60e51b8152602060048201526024808201527f496e73756666696369656e7420746f6b656e7320696e2073616c6520636f6e746044820152631c9858dd60e21b60648201526084016101ed565b60025460405163a9059cbb60e01b8152336004820152602481018390526001600160a01b039091169063a9059cbb906044016020604051808303816000875af1158015610322573d6000803e3d6000fd5b505050506040513d601f19601f8201168201806040525081019061034691906107f2565b61038a5760405162461bcd60e51b8152602060048201526015602482015274151bdad95b881d1c985b9cd9995c8819985a5b1959605a1b60448201526064016101ed565b604080518381526020810183905233917f8fafebcaf9d154343dad25669bfa277f4fbacd7ac6b0c4fed522580e040a0f33910160405180910390a250506103d060018055565b565b6103da6106e8565b6002546001600160a01b031663a9059cbb6103fd6000546001600160a01b031690565b6040516001600160e01b031960e084901b1681526001600160a01b039091166004820152602481018490526044016020604051808303816000875af115801561044a573d6000803e3d6000fd5b505050506040513d601f19601f8201168201806040525081019061046e91906107f2565b6104b25760405162461bcd60e51b8152602060048201526015602482015274151bdad95b881d1c985b9cd9995c8819985a5b1959605a1b60448201526064016101ed565b50565b6104bd6106e8565b600081116105005760405162461bcd60e51b815260206004820152601060248201526f052617465206d757374206265203e20360841b60448201526064016101ed565b60038190556040518181527fe65c987b2e4668e09ba867026921588005b2b2063607a1e7e7d91683c8f91b7b9060200160405180910390a150565b6105436106e8565b6103d06000610715565b6105556106e8565b47806105985760405162461bcd60e51b81526020600482015260126024820152714e6f2045544820746f20776974686472617760701b60448201526064016101ed565b600080546040516001600160a01b039091169083908381818185875af1925050503d80600081146105e5576040519150601f19603f3d011682016040523d82523d6000602084013e6105ea565b606091505b50509050806106315760405162461bcd60e51b8152602060048201526013602482015272115512081d1c985b9cd9995c8819985a5b1959606a1b60448201526064016101ed565b6000546001600160a01b03166001600160a01b03167f8455ae6be5d92f1df1c3c1484388e247a36c7e60d72055ae216dbc258f257d4b8360405161067791815260200190565b60405180910390a25050565b61068b6106e8565b6001600160a01b0381166106b557604051631e4fbdf760e01b8152600060048201526024016101ed565b6104b281610715565b6002600154036106e157604051633ee5aeb560e01b815260040160405180910390fd5b6002600155565b6000546001600160a01b031633146103d05760405163118cdaa760e01b81523360048201526024016101ed565b600080546001600160a01b038381166001600160a01b0319831681178455604051919092169283917f8be0079c531659141344cd1fd0a4f28419497f9722a3daafe3b4186f6b6457e09190a35050565b60006020828403121561077757600080fd5b5035919050565b60006020828403121561079057600080fd5b81356001600160a01b03811681146107a757600080fd5b9392505050565b80820281158282048414176107d357634e487b7160e01b600052601160045260246000fd5b92915050565b6000602082840312156107eb57600080fd5b5051919050565b60006020828403121561080457600080fd5b815180151581146107a757600080fdfea264697066735822122005ded158bc37e44503d3f041d63ee70001a650aa164d9cacf353d0d95ecaccf464736f6c63430008140033",
  "linkReferences": {},
  "deployedLinkReferences": {}
}