{
  "_format": "hh-sol-artifact-1",
  "contractName": "TokenGate",
  "sourceName": "contracts/TokenGate.sol",
  "abi": [
    {
      "inputs": [
        {
          "internalType": "address",
          "name": "_gftToken",
          "type": "address"
        },
        {
          "internalType": "address",
          "name": "_treasury",
          "type": "address"
        }
      ],
      "stateMutability": "nonpayable",
      "type": "constructor"
    },
    {
      "inputs": [
        {
          "internalType": "address",
          "name": "owner",
          "type": "address"
        }
      ],
      "name": "OwnableInvalidOwner",
      "type": "error"
    },
    {
      "inputs": [
        {
          "internalType": "address",
          "name": "account",
          "type": "address"
        }
      ],
      "name": "OwnableUnauthorizedAccount",
      "type": "error"
    },
    {
      "inputs": [],
      "name": "ReentrancyGuardReentrantCall",
      "type": "error"
    },
    {
      "anonymous": false,
      "inputs": [
        {
          "indexed": true,
          "internalType": "address",
          "name": "user",
          "type": "address"
        },
        {
          "indexed": false,
          "internalType": "uint256",
          "name": "cost",
          "type": "uint256"
        },
        {
          "indexed": false,
          "internalType": "uint256",
          "name": "timestamp",
          "type": "uint256"
        }
      ],
      "name": "AnalysisPurchased",
      "type": "event"
    },
    {
      "anonymous": false,
      "inputs": [
        {
          "indexed": false,
          "internalType": "string",
          "name": "featureType",
          "type": "string"
        },
        {
          "indexed": false,
          "internalType": "uint256",
          "name": "newCost",
          "type": "uint256"
        }
      ],
      "name": "CostUpdated",
      "type": "event"
    },
    {
      "anonymous": false,
      "inputs": [
        {
          "indexed": true,
          "internalType": "address",
          "name": "user",
          "type": "address"
        },
        {
          "indexed": false,
          "internalType": "uint256",
          "name": "cost",
          "type": "uint256"
        },
        {
          "indexed": false,
          "internalType": "uint256",
          "name": "timestamp",
          "type": "uint256"
        }
      ],
      "name": "FilterPurchased",
      "type": "event"
    },
    {
      "anonymous": false,
      "inputs": [
        {
          "indexed": true,
          "internalType": "address",
          "name": "previousOwner",
          "type": "address"
        },
        {
          "indexed": true,
          "internalType": "address",
          "name": "newOwner",
          "type": "address"
        }
      ],
      "name": "OwnershipTransferred",
      "type": "event"
    },
    {
      "anonymous": false,
      "inputs": [
        {
          "indexed": true,
          "internalType": "address",
          "name": "newTreasury",
          "type": "address"
        }
      ],
      "name": "TreasuryUpdated",
      "type": "event"
    },
    {
      "inputs": [],
      "name": "advancedFilterCost",
      "outputs": [
        {
          "internalType": "uint256",
          "name": "",
          "type": "uint256"
        }
      ],
      "stateMutability": "view",
      "type": "function"
    },
    {
      "inputs": [
        {
          "internalType": "address",
          "name": "user",
          "type": "address"
        }
      ],
      "name": "canPurchaseAnalysis",
      "outputs": [
        {
          "internalType": "bool",
          "name": "",
          "type": "bool"
        }
      ],
      "stateMutability": "view",
      "type": "function"
    },
    {
      "inputs": [
        {
          "internalType": "address",
          "name": "user",
          "type": "address"
        }
      ],
      "name": "canPurchaseFilter",
      "outputs": [
        {
          "internalType": "bool",
          "name": "",
          "type": "bool"
        }
      ],
      "stateMutability": "view",
      "type": "function"
    },
    {
      "inputs": [],
      "name": "gemAnalysisCost",
      "outputs": [
        {
          "internalType": "uint256",
          "name": "",
          "type": "uint256"
        }
      ],
      "stateMutability": "view",
      "type": "function"
    },
    {
      "inputs": [
        {
          "internalType": "address",
          "name": "user",
          "type": "address"
        }
      ],
      "name": "getUserStats",
      "outputs": [
        {
          "internalType": "uint256",
          "name": "analysisCount",
          "type": "uint256"
        },
        {
          "internalType": "uint256",
          "name": "tokensSpent",
          "type": "uint256"
        }
      ],
      "stateMutability": "view",
      "type": "function"
    },
    {
      "inputs": [],
      "name": "gftToken",
      "outputs": [
        {
          "internalType": "contract IERC20",
          "name": "",
          "type": "address"
        }
      ],
      "stateMutability": "view",
      "type": "function"
    },
    {
      "inputs": [],
      "name": "owner",
      "outputs": [
        {
          "internalType": "address",
          "name": "",
          "type": "address"
        }
      ],
      "stateMutability": "view",
      "type": "function"
    },
    {
      "inputs": [],
      "name": "purchaseAdvancedFilter",
      "outputs": [],
      "stateMutability": "nonpayable",
      "type": "function"
    },
    {
      "inputs": [],
      "name": "purchaseGemAnalysis",
      "outputs": [],
      "stateMutability": "nonpayable",
      "type": "function"
    },
    {
      "inputs": [],
      "name": "renounceOwnership",
      "outputs": [],
      "stateMutability": "nonpayable",
      "type": "function"
    },
    {
      "inputs": [
        {
          "internalType": "uint256",
          "name": "newCost",
          "type": "uint256"
        }
      ],
      "name": "setAdvancedFilterCost",
      "outputs": [],
      "stateMutability": "nonpayable",
      "type": "function"
    },
    {
      "inputs": [
        {
          "internalType": "uint256",
          "name": "newCost",
          "type": "uint256"
        }
      ],
      "name": "setGemAnalysisCost",
      "outputs": [],
      "stateMutability": "nonpayable",
      "type": "function"
    },
    {
      "inputs": [
        {
          "internalType": "address",
          "name": "newTreasury",
          "type": "address"
        }
      ],
      "name": "setTreasury",
      "outputs": [],
      "stateMutability": "nonpayable",
      "type": "function"
    },
    {
      "inputs": [
        {
          "internalType": "address",
          "name": "",
          "type": "address"
        }
      ],
      "name": "totalTokensSpent",
      "outputs": [
        {
          "internalType": "uint256",
          "name": "",
          "type": "uint256"
        }
      ],
      "stateMutability": "view",
      "type": "function"
    },
    {
      "inputs": [
        {
          "internalType": "address",
          "name": "newOwner",
          "type": "address"
        }
      ],
      "name": "transferOwnership",
      "outputs": [],
      "stateMutability": "nonpayable",
      "type": "function"
    },
    {
      "inputs": [],
      "name": "treasury",
      "outputs": [
        {
          "internalType": "address",
          "name": "",
          "type": "address"
        }
      ],
      "stateMutability": "view",
      "type": "function"
    },
    {
      "inputs": [
        {
          "internalType": "address",
          "name": "",
          "type": "address"
        }
      ],
      "name": "userAnalysisCount",
      "outputs": [
        {
          "internalType": "uint256",
          "name": "",
          "type": "uint256"
        }
      ],
      "stateMutability": "view",
      "type": "function"
    }
  ],
  "bytecode": "0x6080604052678ac7230489e80000600355674563918244f4000060045534801561002857600080fd5b50604051610e51380380610e51833981016040819052610047916101c5565b338061006e57604051631e4fbdf760e01b8152600060048201526024015b60405180910390fd5b61007781610159565b50600180556001600160a01b0382166100d25760405162461bcd60e51b815260206004820152601560248201527f496e76616c696420746f6b656e206164647265737300000000000000000000006044820152606401610065565b6001600160a01b0381166101285760405162461bcd60e51b815260206004820152601860248201527f496e76616c6964207472656173757279206164647265737300000000000000006044820152606401610065565b600280546001600160a01b039384166001600160a01b031991821617909155600580549290931691161790556101f8565b600080546001600160a01b038381166001600160a01b0319831681178455604051919092169283917f8be0079c531659141344cd1fd0a4f28419497f9722a3daafe3b4186f6b6457e09190a35050565b80516001600160a01b03811681146101c057600080fd5b919050565b600080604083850312156101d857600080fd5b6101e1836101a9565b91506101ef602084016101a9565b90509250929050565b610c4a806102076000396000f3fe608060405234801561001057600080fd5b506004361061010b5760003560e01c8063715018a6116100a2578063dc105c6411610071578063dc105c6414610256578063e4b300f314610269578063f0f442601461027c578063f2a3aaa31461028f578063f2fde38b1461029857600080fd5b8063715018a614610222578063889c93b21461022a5780638da5cb5b14610232578063d0a0b60d1461024357600080fd5b80634b8d97fa116100de5780634b8d97fa146101905780634e43603a1461019957806361d027b3146101e45780636bbb48b31461020f57600080fd5b806322def7ec146101105780632fcaf05b146101385780633f03ba361461016657806341ff236414610186575b600080fd5b61012361011e366004610b48565b6102ab565b60405190151581526020015b60405180910390f35b610158610146366004610b48565b60066020526000908152604090205481565b60405190815260200161012f565b610158610174366004610b48565b60076020526000908152604090205481565b61018e610327565b005b61015860045481565b6101cf6101a7366004610b48565b6001600160a01b03166000908152600660209081526040808320546007909252909120549091565b6040805192835260208301919091520161012f565b6005546101f7906001600160a01b031681565b6040516001600160a01b03909116815260200161012f565b61012361021d366004610b48565b6105f9565b61018e610634565b61018e610646565b6000546001600160a01b03166101f7565b61018e610251366004610b78565b6108ed565b61018e610264366004610b78565b610956565b6002546101f7906001600160a01b031681565b61018e61028a366004610b48565b6109bb565b61015860035481565b61018e6102a6366004610b48565b610a63565b6003546002546040516370a0823160e01b81526001600160a01b0384811660048301526000939216906370a08231906024015b602060405180830381865afa1580156102fb573d6000803e3d6000fd5b505050506040513d601f19601f8201168201806040525081019061031f9190610b91565b101592915050565b61032f610aa1565b6003546002546040516370a0823160e01b81523360048201526001600160a01b03909116906370a0823190602401602060405180830381865afa15801561037a573d6000803e3d6000fd5b505050506040513d601f19601f8201168201806040525081019061039e9190610b91565b10156103ec5760405162461bcd60e51b8152602060048201526018602482015277496e73756666696369656e74204746542062616c616e636560401b60448201526064015b60405180910390fd5b600354600254604051636eb1769f60e11b81523360048201523060248201526001600160a01b039091169063dd62ed3e90604401602060405180830381865afa15801561043d573d6000803e3d6000fd5b505050506040513d601f19601f820116820180604052508101906104619190610b91565b10156104a85760405162461bcd60e51b8152602060048201526016602482015275496e73756666696369656e7420616c6c6f77616e636560501b60448201526064016103e3565b6002546005546003546040516323b872dd60e01b81523360048201526001600160a01b03928316602482015260448101919091529116906323b872dd906064016020604051808303816000875af1158015610507573d6000803e3d6000fd5b505050506040513d601f19601f8201168201806040525081019061052b9190610baa565b6105695760405162461bcd60e51b815260206004820152600f60248201526e151c985b9cd9995c8819985a5b1959608a1b60448201526064016103e3565b33600090815260066020526040812080549161058483610be2565b909155505060035433600090815260076020526040812080549091906105ab908490610bfb565b90915550506003546040805191825242602083015233917fc060f0b91b067aa0896a4262aa236230a875daebb7ff8f2fb94849bdc27d745d91015b60405180910390a26105f760018055565b565b600480546002546040516370a0823160e01b81526001600160a01b0385811694820194909452600093909116906370a08231906024016102de565b61063c610acb565b6105f76000610af8565b61064e610aa1565b600480546002546040516370a0823160e01b8152339381019390935290916001600160a01b03909116906370a0823190602401602060405180830381865afa15801561069e573d6000803e3d6000fd5b505050506040513d601f19601f820116820180604052508101906106c29190610b91565b101561070b5760405162461bcd60e51b8152602060048201526018602482015277496e73756666696369656e74204746542062616c616e636560401b60448201526064016103e3565b60048054600254604051636eb1769f60e11b8152339381019390935230602484015290916001600160a01b039091169063dd62ed3e90604401602060405180830381865afa158015610761573d6000803e3d6000fd5b505050506040513d601f19601f820116820180604052508101906107859190610b91565b10156107cc5760405162461bcd60e51b8152602060048201526016602482015275496e73756666696369656e7420616c6c6f77616e636560501b60448201526064016103e3565b600254600554600480546040516323b872dd60e01b815233928101929092526001600160a01b03928316602483015260448201529116906323b872dd906064016020604051808303816000875af115801561082b573d6000803e3d6000fd5b505050506040513d601f19601f8201168201806040525081019061084f9190610baa565b61088d5760405162461bcd60e51b815260206004820152600f60248201526e151c985b9cd9995c8819985a5b1959608a1b60448201526064016103e3565b60045433600090815260076020526040812080549091906108af908490610bfb565b90915550506004546040805191825242602083015233917e5daa0579499931115aaaec668cc5524493632c28b4c6caa13cf57e85b3c8cc91016105e6565b6108f5610acb565b600381905560408051818152600b918101919091526a67656d416e616c7973697360a81b6060820152602081018290527f31b0457ce6cf3d085639afa1ad7c8e3116b0c3502c498a16125e93e39e21b327906080015b60405180910390a150565b61095e610acb565b600481905560408051818152600e918101919091526d30b23b30b731b2b22334b63a32b960911b6060820152602081018290527f31b0457ce6cf3d085639afa1ad7c8e3116b0c3502c498a16125e93e39e21b3279060800161094b565b6109c3610acb565b6001600160a01b038116610a195760405162461bcd60e51b815260206004820152601860248201527f496e76616c69642074726561737572792061646472657373000000000000000060448201526064016103e3565b600580546001600160a01b0319166001600160a01b0383169081179091556040517f7dae230f18360d76a040c81f050aa14eb9d6dc7901b20fc5d855e2a20fe814d190600090a250565b610a6b610acb565b6001600160a01b038116610a9557604051631e4fbdf760e01b8152600060048201526024016103e3565b610a9e81610af8565b50565b600260015403610ac457604051633ee5aeb560e01b815260040160405180910390fd5b6002600155565b6000546001600160a01b031633146105f75760405163118cdaa760e01b81523360048201526024016103e3565b600080546001600160a01b038381166001600160a01b0319831681178455604051919092169283917f8be0079c531659141344cd1fd0a4f28419497f9722a3daafe3b4186f6b6457e09190a35050565b600060208284031215610b5a57600080fd5b81356001600160a01b0381168114610b7157600080fd5b9392505050565b600060208284031215610b8a57600080fd5b5035919050565b600060208284031215610ba357600080fd5b5051919050565b600060208284031215610bbc57600080fd5b81518015158114610b7157600080fd5b634e487b7160e01b600052601160045260246000fd5b600060018201610bf457610bf4610bcc565b5060010190565b80820180821115610c0e57610c0e610bcc565b9291505056fea26469706673582212206b1eb7d8fdf7cbef0d7aa83cc8b69f3c66b39b0c5db898ba0d5b70650ca369dd64736f6c63430008140033",
  "linkReferences": {},
  "deployedLinkReferences": {}
}